:020000020000FC
:1000000000C08FE58DBF84E08EBF84E131D080EFEA
:1000100084BB8FEF81BBA3D08EE495D08FE493D0C7
:100020008EE491D085E48FD084E122D038D08F93B4
:100030008030D1F394D08F9186D0F6CF98E0990F8D
:100040008A95E9F795BB0000000083B38F7008958F
:1000500081E0F4DF8295B82F82E0F0DFB80F83E013
:10006000EDDF8295A82F84E0E9DFA80FCD01089588
:10007000682FEEDF8F939F93862F90E04AD0E8DFC2
:100080007F916F9186239723A0E6B0E07D916C91DC
:100090008C939E9370956095862397230895DC0139
:1000A0008AE2A0FD089580E3A1FD089583E2A2FD08
:1000B000089584E4A3FD089587E3A4FD089588E3EB
:1000C000A5FD089589E3A6FD089583E4A7FD08959D
:1000D00084E3B0FD089585E3B1FD089586E3B2FDA4
:1000E000089582E4B3FD089581E3B4FD089582E3A9
:1000F000B5FD089583E3B6FD089581E4B7FD089545
:100100008827089501970000000000000000D1F743
:1001100008958F939F9386EE93E0F4DF9F918F91E4
:100120000197B9F708958F9390B39F70807F890FDF
:1001300082BB939A93988F918295807F890F82BB1F
:10014000939A93980895929AEEDF8BE290E0DADF2B
:1001500008959298E8DF87E290E0D4DF089588E27E
:1001600090E0D7DF80E382BB939A939887E290E098
:10017000C9DF80E382BB939A939887E290E0C2DF65
:1001800080E282BB939A939887E290E0BBDF88E29B
:10019000E0DF8CE0DEDF81E0DCDF8AEF95E0B2DFDC
:0601A00086E0D7DF0895A0
:00000001FF
