:020000020000FC
:1000000000C08FE58DBF84E08EBF7FEF77BB80EFB0
:1000100084BB772778BB8AE014D03AD000E38017FE
:10002000D1F78AE00ED034D08030D9F305E38017C1
:1000300091F77FEF78BB88EB9BE05DD0772778BBAB
:10004000EACF682F15D08F939F93862F90E053D0DF
:100050000FD07F916F9186239723A0E6B0E07D912A
:100060006C918C939E937095609586239723089549
:1000700081E052D08295B82F82E04ED0B80F83E055
:100080004BD08295A82F84E047D0A80FCD010895CA
:10009000DC018AE2A0FD089580E3A1FD089583E2DA
:1000A000A2FD089584E4A3FD089587E3A4FD0895C7
:1000B00088E3A5FD089589E3A6FD089583E4A7FDDF
:1000C000089584E3B0FD089585E3B1FD089586E3C6
:1000D000B2FD089582E4B3FD089581E3B4FD08956F
:1000E00082E3B5FD089583E3B6FD089581E4B7FD8D
:1000F0000895882708958F939F9386EE93E005D007
:100100009F918F910197B9F7089501970000000022
:1001100000000000D1F7089598E0990F8A95E9F75B
:0C01200095BB0000000083B38F700895B1
:00000001FF
