:020000020000FC
:0200000010C02E
:1000200094C00FE50DBF04E00EBF00E00ABB0FEF68
:1000300007BB00E008BB0CEF01BB00EF04BB04E012
:1000400009BF00E00EBD10E020E016D1789409B39E
:100050000030E9F38EE00AD187E290E0EAD007E6CB
:100060000DBD09E60CBD05E00EBD84E1A9D075D03B
:100070008030D9F38F93F4D08F91082F0033A9F7F4
:1000800084E19ED06AD08030D9F38F93E9D08F91EC
:10009000082F0033A9F3082F053339F784E190D0F6
:1000A0005CD08030D9F3082F8F93DAD08F9105334D
:1000B00039F3082F0334C9F611E0203009F401D0D8
:1000C000FFCF8CE0D3D087E290E0B3D081E0CED0F8
:1000D0008AEF95E0AED081E4C3D08CE4C1D081E456
:1000E000BFD082E5BDD08DE4BBD080E2B9D08FE433
:1000F000B7D086E4B5D086E4B3D0FFCF08958CE0C6
:10010000B5D087E290E095D081E0B0D08AEF95E05D
:1001100090D081E4A5D08CE4A3D081E4A1D082E585
:100120009FD08DE49DD080E29BD08FE499D08EE467
:1001300097D00FEF08BB88EC90E071D0002708BB88
:1001400088EC90E06CD0F5CF089584E190E067D022
:10015000103011F421E0D3DF1895DC018AE2A0FD14
:10016000089580E3A1FD089583E2A2FD089584E44B
:10017000A3FD089587E3A4FD089588E3A5FD0895F0
:1001800089E3A6FD089583E4A7FD089584E3B0FD07
:10019000089585E3B1FD089586E3B2FD089582E4F4
:1001A000B3FD089581E3B4FD089582E3B5FD08959C
:1001B00083E3B6FD089581E4B7FD08958827089587
:1001C000682F13D08F939F93862F90E028D00DD067
:1001D0007F916F9186239723642F732F482F392F98
:1001E0007095609586239723089581E00ED08295BF
:1001F000B82F82E00AD0B80F83E007D08295A82FED
:1002000084E003D0A80FCD01089598E0990F8A9556
:10021000E9F795BB0000000083B38F7008958F93BA
:100220009F9386EE93E005D09F918F910197B9F748
:10023000089501970000000000000000D1F7089524
:100240008F9390B39F70807F890F82BB939A93980E
:100250008F918295807F890F82BB939A939808959E
:10026000929AEEDF8BE290E0E4DF08959298E8DF67
:1002700087E290E0DEDF089588E290E0D0DF80E35F
:1002800082BB939A939887E290E0D3DF80E382BBAE
:10029000939A939887E290E0CCDF80E282BB939AB6
:1002A000939887E290E0C5DF88E2E0DF8CE0DEDF54
:1002B00081E0DCDF8AEF95E0BCDF86E0D7DF0895E0
:00000001FF
