:100000000C942A000C9434000C9434000C943400AA
:100010000C9434000C9434000C9434000C94340090
:100020000C9434000C9434000C9434000C94340080
:100030000C9434000C9434000C9434000C94340070
:100040000C9434000C9434000C9434000C94340060
:100050000C94340011241FBECFE5D4E0DEBFCDBF29
:100060000E9436000C94BC000C940000CF93DF93E8
:100070008FE594E09EBF8DBF8FEF87BB11BA80E8FC
:1000800088BB80B390E040E850E060E870E0E1E0D9
:10009000F0E0A2E0B0E068C02F713070EC01D595BF
:1000A000C795D595C795D595C795D595C795C130B1
:1000B000D10559F4E901D595C795D595C795D5953D
:1000C000C795D595C7952097B1F183FF0EC023FD45
:1000D0000CC04038510591F14034510591F1440F65
:1000E000551F440F551FC9013FC082FF0EC022FD9E
:1000F0000CC04230510541F14130510541F1559557
:10010000479555954795C9012FC081FF09C021FD2D
:1001100007C040385105F9F0440F551FC90124C0EC
:1001200080FF1CC020FD1CC041305105D9F0559501
:100130004795C90119C0C901AB0116C0C901AD017C
:1001400013C0C901AF0110C0C901AB010DC0C90185
:1001500040E450E009C0C901AF0106C0C90104C0B4
:10016000C90102C0C901AB0148BB20B330E082170E
:0C017000930709F091CFF8CFF894FFCF6F
:00000001FF
