:020000020000FC
:0200000002C03C
:1000040014C00FE50DBF04E00EBF83E085BF80E49C
:100014008BBF789400270ABB0FEF04BB442748BB6F
:1000240088EC90E01CD04395FACF00E80ABF8F9388
:100034009F9385E090E013D09F918F910AB7007849
:10004400A1F74427552700B307FF08C009B300FDF3
:100054004395069553955830D1F745BB18958F9322
:100064009F9386EE93E005D09F918F910197B9F706
:10007400089501970000000000000000D1F70895E2
:00000001FF
