:020000020000FC
:100000008FE58DBF84E08EBF112717BBAFEFAABB72
:100010001CEF11BB49D088D016B381E317FF80E3F2
:100020006DD081E316FF80E369D081E315FF80E3A3
:1000300065D081E314FF80E361D081E313FF80E3A7
:100040005DD081E312FF80E359D081E311FF80E3AB
:1000500055D081E310FF80E351D08DE34FD08BE288
:1000600017FD1ED04BD020E030E0143610F01456AF
:1000700021E01A3018F01A503395FBCF00E3200F1F
:10008000300F100F822F803321F038D0832F36D0DD
:1000900004C0832F803309F031D0812F2FD0BBCF04
:1000A000109513958DE2089588E290E04AD080E3A0
:1000B00082BB939A939887E290E03CD080E382BB26
:1000C000939A939887E290E035D080E282BB939A2E
:1000D000939887E290E02ED088E20AD08CE008D096
:1000E00081E006D08AEF95E025D086E001D0089522
:1000F00092980AD087E290E01DD00895929A04D099
:100100008BE290E017D008958F9390B39F70807F1B
:10011000890F82BB939A93988F918295807F890FE4
:1001200082BB939A9398089581E0E2DF8AEF95E08D
:1001300001D0089501970000000000000000D1F7F1
:1001400008958F939F9386EE93E0F4DF9F918F91B4
:060150000197B9F70895C4
:00000001FF
