:100000000C942A000C9434000C9434000C943400AA
:100010000C9434000C9434000C9434000C94340090
:100020000C9434000C9434000C9434000C94340080
:100030000C9434000C9434000C9434000C94340070
:100040000C9434000C9434000C9434000C94340060
:100050000C94340011241FBECFE5D4E0DEBFCDBF29
:100060000E9436000C94CB000C940000EF92FF929B
:100070001F93CF93DF938FE594E09EBF8DBF8FEFEB
:1000800087BB80E888BB11BA80B390E09C0140E850
:1000900050E010E8A0E8B0E0EE24FF246894E1F816
:1000A000C1E0D0E0F901E071F070BC0160717070E6
:1000B000E61BF70BE031F10511F418BBAD01F901B6
:1000C000E870F070BC0168707070E61BF70BE830E8
:1000D000F10579F4413251052CF4440F551F440FBA
:1000E000551F06C04034510511F4AE0101C0A701EF
:1000F00048BBF901E470F070BC0164707070E61BDD
:10010000F70BE430F105B1F4443051055CF0BA016D
:10011000552314F46D5F7F4FAB0155954795559569
:10012000479507C04230510511F4AD0102C040E4CB
:1001300050E048BBF901E270F070BC016270707071
:10014000E61BF70BE230F10541F4413451051CF494
:10015000440F551F01C0AE0148BB21703070BC0177
:1001600061707070261B370B2130310571F44230FD
:1001700051054CF09A01552314F42F5F3F4FA9010C
:100180005595479501C0AD0148BBE0B39C0160E0C7
:0A0190008E2F962F87CFF894FFCF33
:00000001FF
